{
  "contractName": "FlipContract",
  "abi": [
    {
      "anonymous": false,
      "inputs": [
        {
          "indexed": true,
          "internalType": "address",
          "name": "previousOwner",
          "type": "address"
        },
        {
          "indexed": true,
          "internalType": "address",
          "name": "newOwner",
          "type": "address"
        }
      ],
      "name": "OwnershipTransferred",
      "type": "event"
    },
    {
      "anonymous": false,
      "inputs": [
        {
          "indexed": true,
          "internalType": "address",
          "name": "user",
          "type": "address"
        },
        {
          "indexed": true,
          "internalType": "uint256",
          "name": "bet",
          "type": "uint256"
        },
        {
          "indexed": true,
          "internalType": "bool",
          "name": "win",
          "type": "bool"
        },
        {
          "indexed": false,
          "internalType": "uint8",
          "name": "side",
          "type": "uint8"
        }
      ],
      "name": "bet",
      "type": "event"
    },
    {
      "anonymous": false,
      "inputs": [
        {
          "indexed": false,
          "internalType": "address",
          "name": "owner",
          "type": "address"
        },
        {
          "indexed": false,
          "internalType": "uint256",
          "name": "funding",
          "type": "uint256"
        }
      ],
      "name": "funded",
      "type": "event"
    },
    {
      "inputs": [],
      "name": "ContractBalance",
      "outputs": [
        {
          "internalType": "uint256",
          "name": "",
          "type": "uint256"
        }
      ],
      "stateMutability": "view",
      "type": "function"
    },
    {
      "inputs": [],
      "name": "owner",
      "outputs": [
        {
          "internalType": "address",
          "name": "",
          "type": "address"
        }
      ],
      "stateMutability": "view",
      "type": "function"
    },
    {
      "inputs": [],
      "name": "renounceOwnership",
      "outputs": [],
      "stateMutability": "nonpayable",
      "type": "function"
    },
    {
      "inputs": [
        {
          "internalType": "address",
          "name": "newOwner",
          "type": "address"
        }
      ],
      "name": "transferOwnership",
      "outputs": [],
      "stateMutability": "nonpayable",
      "type": "function"
    },
    {
      "inputs": [
        {
          "internalType": "uint8",
          "name": "side",
          "type": "uint8"
        }
      ],
      "name": "flip",
      "outputs": [
        {
          "internalType": "bool",
          "name": "",
          "type": "bool"
        }
      ],
      "stateMutability": "payable",
      "type": "function"
    },
    {
      "inputs": [],
      "name": "withdrawAll",
      "outputs": [
        {
          "internalType": "uint256",
          "name": "",
          "type": "uint256"
        }
      ],
      "stateMutability": "nonpayable",
      "type": "function"
    },
    {
      "inputs": [],
      "name": "getBalance",
      "outputs": [
        {
          "internalType": "uint256",
          "name": "",
          "type": "uint256"
        }
      ],
      "stateMutability": "view",
      "type": "function"
    },
    {
      "inputs": [],
      "name": "fundContract",
      "outputs": [],
      "stateMutability": "payable",
      "type": "function"
    }
  ],
  "bytecode": "0x608060405234801561001057600080fd5b5061002d61002261003260201b60201c565b61003a60201b60201c565b6100fe565b600033905090565b60008060009054906101000a900473ffffffffffffffffffffffffffffffffffffffff169050816000806101000a81548173ffffffffffffffffffffffffffffffffffffffff021916908373ffffffffffffffffffffffffffffffffffffffff1602179055508173ffffffffffffffffffffffffffffffffffffffff168173ffffffffffffffffffffffffffffffffffffffff167f8be0079c531659141344cd1fd0a4f28419497f9722a3daafe3b4186f6b6457e060405160405180910390a35050565b610dc08061010d6000396000f3fe60806040526004361061007b5760003560e01c8063853828b61161004e578063853828b61461011d5780638da5cb5b14610148578063bd097e2114610173578063f2fde38b1461017d5761007b565b806312065fe0146100805780633b668059146100ab578063638c0637146100d6578063715018a614610106575b600080fd5b34801561008c57600080fd5b506100956101a6565b6040516100a291906107f1565b60405180910390f35b3480156100b757600080fd5b506100c06101b0565b6040516100cd91906107f1565b60405180910390f35b6100f060048036038101906100eb919061084a565b6101b6565b6040516100fd9190610892565b60405180910390f35b34801561011257600080fd5b5061011b610369565b005b34801561012957600080fd5b506101326103f1565b60405161013f91906107f1565b60405180910390f35b34801561015457600080fd5b5061015d6104cd565b60405161016a91906108ee565b60405180910390f35b61017b6104f6565b005b34801561018957600080fd5b506101a4600480360381019061019f9190610935565b6105e8565b005b6000600154905090565b60015481565b60006101cc6002346106e090919063ffffffff16565b47101561020e576040517f08c379a0000000000000000000000000000000000000000000000000000000008152600401610205906109e5565b60405180910390fd5b60008260ff161480610223575060018260ff16145b610262576040517f08c379a000000000000000000000000000000000000000000000000000000000815260040161025990610a77565b60405180910390fd5b60008260ff166002426102759190610ac6565b14156102f057346001600082825461028d9190610b26565b925050819055503373ffffffffffffffffffffffffffffffffffffffff166108fc6002346102bb9190610b5a565b9081150290604051600060405180830381858888f193505050501580156102e6573d6000803e3d6000fd5b506001905061030e565b34600160008282546103029190610bb4565b92505081905550600090505b801515343373ffffffffffffffffffffffffffffffffffffffff167f271b3e8d94a67ce5e9cee03d78c310019308ea7075468a4eb2bac8b027b14c4d866040516103589190610c19565b60405180910390a480915050919050565b6103716106f6565b73ffffffffffffffffffffffffffffffffffffffff1661038f6104cd565b73ffffffffffffffffffffffffffffffffffffffff16146103e5576040517f08c379a00000000000000000000000000000000000000000000000000000000081526004016103dc90610c80565b60405180910390fd5b6103ef60006106fe565b565b60006103fb6106f6565b73ffffffffffffffffffffffffffffffffffffffff166104196104cd565b73ffffffffffffffffffffffffffffffffffffffff161461046f576040517f08c379a000000000000000000000000000000000000000000000000000000000815260040161046690610c80565b60405180910390fd5b3373ffffffffffffffffffffffffffffffffffffffff166108fc479081150290604051600060405180830381858888f193505050501580156104b5573d6000803e3d6000fd5b50600047146104c7576104c6610ca0565b5b47905090565b60008060009054906101000a900473ffffffffffffffffffffffffffffffffffffffff16905090565b6104fe6106f6565b73ffffffffffffffffffffffffffffffffffffffff1661051c6104cd565b73ffffffffffffffffffffffffffffffffffffffff1614610572576040517f08c379a000000000000000000000000000000000000000000000000000000000815260040161056990610c80565b60405180910390fd5b600034141561058057600080fd5b610595346001546107c290919063ffffffff16565b6001819055507fed7d0ddcc17abdb3935a0a23cd93e91b449dfeac7fd0def9f481ed5b37e18c4d33346040516105cc929190610ccf565b60405180910390a147600154146105e6576105e5610ca0565b5b565b6105f06106f6565b73ffffffffffffffffffffffffffffffffffffffff1661060e6104cd565b73ffffffffffffffffffffffffffffffffffffffff1614610664576040517f08c379a000000000000000000000000000000000000000000000000000000000815260040161065b90610c80565b60405180910390fd5b600073ffffffffffffffffffffffffffffffffffffffff168173ffffffffffffffffffffffffffffffffffffffff1614156106d4576040517f08c379a00000000000000000000000000000000000000000000000000000000081526004016106cb90610d6a565b60405180910390fd5b6106dd816106fe565b50565b600081836106ee9190610b5a565b905092915050565b600033905090565b60008060009054906101000a900473ffffffffffffffffffffffffffffffffffffffff169050816000806101000a81548173ffffffffffffffffffffffffffffffffffffffff021916908373ffffffffffffffffffffffffffffffffffffffff1602179055508173ffffffffffffffffffffffffffffffffffffffff168173ffffffffffffffffffffffffffffffffffffffff167f8be0079c531659141344cd1fd0a4f28419497f9722a3daafe3b4186f6b6457e060405160405180910390a35050565b600081836107d09190610bb4565b905092915050565b6000819050919050565b6107eb816107d8565b82525050565b600060208201905061080660008301846107e2565b92915050565b600080fd5b600060ff82169050919050565b61082781610811565b811461083257600080fd5b50565b6000813590506108448161081e565b92915050565b6000602082840312156108605761085f61080c565b5b600061086e84828501610835565b91505092915050565b60008115159050919050565b61088c81610877565b82525050565b60006020820190506108a76000830184610883565b92915050565b600073ffffffffffffffffffffffffffffffffffffffff82169050919050565b60006108d8826108ad565b9050919050565b6108e8816108cd565b82525050565b600060208201905061090360008301846108df565b92915050565b610912816108cd565b811461091d57600080fd5b50565b60008135905061092f81610909565b92915050565b60006020828403121561094b5761094a61080c565b5b600061095984828501610920565b91505092915050565b600082825260208201905092915050565b7f54686520636f6e7472616374206861736e277420656e6f756768742066756e6460008201527f7300000000000000000000000000000000000000000000000000000000000000602082015250565b60006109cf602183610962565b91506109da82610973565b604082019050919050565b600060208201905081810360008301526109fe816109c2565b9050919050565b7f496e636f727265637420736964652c206e6565647320746f2062652030206f7260008201527f2031000000000000000000000000000000000000000000000000000000000000602082015250565b6000610a61602283610962565b9150610a6c82610a05565b604082019050919050565b60006020820190508181036000830152610a9081610a54565b9050919050565b7f4e487b7100000000000000000000000000000000000000000000000000000000600052601260045260246000fd5b6000610ad1826107d8565b9150610adc836107d8565b925082610aec57610aeb610a97565b5b828206905092915050565b7f4e487b7100000000000000000000000000000000000000000000000000000000600052601160045260246000fd5b6000610b31826107d8565b9150610b3c836107d8565b925082821015610b4f57610b4e610af7565b5b828203905092915050565b6000610b65826107d8565b9150610b70836107d8565b9250817fffffffffffffffffffffffffffffffffffffffffffffffffffffffffffffffff0483118215151615610ba957610ba8610af7565b5b828202905092915050565b6000610bbf826107d8565b9150610bca836107d8565b9250827fffffffffffffffffffffffffffffffffffffffffffffffffffffffffffffffff03821115610bff57610bfe610af7565b5b828201905092915050565b610c1381610811565b82525050565b6000602082019050610c2e6000830184610c0a565b92915050565b7f4f776e61626c653a2063616c6c6572206973206e6f7420746865206f776e6572600082015250565b6000610c6a602083610962565b9150610c7582610c34565b602082019050919050565b60006020820190508181036000830152610c9981610c5d565b9050919050565b7f4e487b7100000000000000000000000000000000000000000000000000000000600052600160045260246000fd5b6000604082019050610ce460008301856108df565b610cf160208301846107e2565b9392505050565b7f4f776e61626c653a206e6577206f776e657220697320746865207a65726f206160008201527f6464726573730000000000000000000000000000000000000000000000000000602082015250565b6000610d54602683610962565b9150610d5f82610cf8565b604082019050919050565b60006020820190508181036000830152610d8381610d47565b905091905056fea2646970667358221220e718fc4a29925d6dce956303eb30ab2a28cd1b259b7d23bab55ea6ef5f92dd7864736f6c63430008090033",
  "immutableReferences": {},
  "source": "// SPDX-License-Identifier: IPC\r\nimport \"../node_modules/@openzeppelin/contracts/access/Ownable.sol\";\r\nimport \"../node_modules/@openzeppelin/contracts/utils/math/SafeMath.sol\";\r\n\r\npragma solidity ^0.8.9;\r\n\r\ncontract FlipContract is Ownable {\r\n    \r\n    using SafeMath for uint256;\r\n\r\n    uint public ContractBalance;\r\n\r\n    event bet(address indexed user, uint indexed bet, bool indexed win, uint8 side);\r\n    event funded(address owner, uint funding);\r\n\r\n    // Function to simulate coin flip 50/50 randomnes\r\n    function flip(uint8 side) public payable returns(bool){\r\n        require(address(this).balance >= msg.value.mul(2), \"The contract hasn't enought funds\");\r\n        require(side == 0 || side == 1, \"Incorrect side, needs to be 0 or 1\");\r\n        bool win;\r\n        if(block.timestamp % 2 == side){\r\n            ContractBalance -= msg.value;\r\n            payable(msg.sender).transfer(msg.value * 2);\r\n            win = true;\r\n        }\r\n        else{\r\n            ContractBalance += msg.value;\r\n            win = false;\r\n        }\r\n        emit bet(msg.sender, msg.value, win, side);\r\n        return win;\r\n    }\r\n    // Function to Withdraw Funds\r\n    function withdrawAll() public onlyOwner returns(uint){\r\n        payable(msg.sender).transfer(address(this).balance);\r\n        assert(address(this).balance == 0);\r\n        return address(this).balance;\r\n    }\r\n    // Function to get the Balance of the Contract\r\n    function getBalance() public view returns (uint) {\r\n        return ContractBalance;\r\n    }\r\n    // Fund the Contract\r\n    function fundContract() public payable onlyOwner {\r\n        require(msg.value != 0);\r\n        ContractBalance = ContractBalance.add(msg.value);\r\n        emit funded(msg.sender, msg.value);\r\n        assert(ContractBalance == address(this).balance);\r\n    }\r\n\r\n}",
  "sourcePath": "C:\\Workspace\\blockchain\\moralis\\demo-apps\\casino-dapp-angular\\truffle\\contracts\\flipcontract.sol",
  "compiler": {
    "name": "solc",
    "version": "0.8.9+commit.e5eed63a.Emscripten.clang"
  },
  "schemaVersion": "3.4.3",
  "updatedAt": "2021-12-09T16:51:14.612Z",
  "devdoc": {
    "kind": "dev",
    "methods": {
      "owner()": {
        "details": "Returns the address of the current owner."
      },
      "renounceOwnership()": {
        "details": "Leaves the contract without owner. It will not be possible to call `onlyOwner` functions anymore. Can only be called by the current owner. NOTE: Renouncing ownership will leave the contract without an owner, thereby removing any functionality that is only available to the owner."
      },
      "transferOwnership(address)": {
        "details": "Transfers ownership of the contract to a new account (`newOwner`). Can only be called by the current owner."
      }
    },
    "version": 1
  },
  "userdoc": {
    "kind": "user",
    "methods": {},
    "version": 1
  }
}